{
  "contractName": "Bridge",
  "abi": [
    {
      "inputs": [
        {
          "internalType": "uint8",
          "name": "chainID",
          "type": "uint8"
        },
        {
          "internalType": "address[]",
          "name": "initialRelayers",
          "type": "address[]"
        },
        {
          "internalType": "uint256",
          "name": "initialRelayerThreshold",
          "type": "uint256"
        }
      ],
      "stateMutability": "nonpayable",
      "type": "constructor"
    },
    {
      "anonymous": false,
      "inputs": [
        {
          "indexed": true,
          "internalType": "uint8",
          "name": "destinationChainID",
          "type": "uint8"
        },
        {
          "indexed": true,
          "internalType": "bytes32",
          "name": "resourceID",
          "type": "bytes32"
        },
        {
          "indexed": true,
          "internalType": "uint64",
          "name": "depositNonce",
          "type": "uint64"
        }
      ],
      "name": "Deposit",
      "type": "event"
    },
    {
      "anonymous": false,
      "inputs": [
        {
          "indexed": false,
          "internalType": "address",
          "name": "account",
          "type": "address"
        }
      ],
      "name": "Paused",
      "type": "event"
    },
    {
      "anonymous": false,
      "inputs": [
        {
          "indexed": true,
          "internalType": "uint8",
          "name": "originChainID",
          "type": "uint8"
        },
        {
          "indexed": true,
          "internalType": "uint64",
          "name": "depositNonce",
          "type": "uint64"
        },
        {
          "indexed": true,
          "internalType": "enum Bridge.ProposalStatus",
          "name": "status",
          "type": "uint8"
        },
        {
          "indexed": false,
          "internalType": "bytes32",
          "name": "resourceID",
          "type": "bytes32"
        },
        {
          "indexed": false,
          "internalType": "bytes32",
          "name": "dataHash",
          "type": "bytes32"
        }
      ],
      "name": "ProposalEvent",
      "type": "event"
    },
    {
      "anonymous": false,
      "inputs": [
        {
          "indexed": true,
          "internalType": "uint8",
          "name": "originChainID",
          "type": "uint8"
        },
        {
          "indexed": true,
          "internalType": "uint64",
          "name": "depositNonce",
          "type": "uint64"
        },
        {
          "indexed": true,
          "internalType": "enum Bridge.ProposalStatus",
          "name": "status",
          "type": "uint8"
        },
        {
          "indexed": false,
          "internalType": "bytes32",
          "name": "resourceID",
          "type": "bytes32"
        }
      ],
      "name": "ProposalVote",
      "type": "event"
    },
    {
      "anonymous": false,
      "inputs": [
        {
          "indexed": true,
          "internalType": "address",
          "name": "relayer",
          "type": "address"
        }
      ],
      "name": "RelayerAdded",
      "type": "event"
    },
    {
      "anonymous": false,
      "inputs": [
        {
          "indexed": true,
          "internalType": "address",
          "name": "relayer",
          "type": "address"
        }
      ],
      "name": "RelayerRemoved",
      "type": "event"
    },
    {
      "anonymous": false,
      "inputs": [
        {
          "indexed": true,
          "internalType": "uint256",
          "name": "newThreshold",
          "type": "uint256"
        }
      ],
      "name": "RelayerThresholdChanged",
      "type": "event"
    },
    {
      "anonymous": false,
      "inputs": [
        {
          "indexed": true,
          "internalType": "bytes32",
          "name": "role",
          "type": "bytes32"
        },
        {
          "indexed": true,
          "internalType": "address",
          "name": "account",
          "type": "address"
        },
        {
          "indexed": true,
          "internalType": "address",
          "name": "sender",
          "type": "address"
        }
      ],
      "name": "RoleGranted",
      "type": "event"
    },
    {
      "anonymous": false,
      "inputs": [
        {
          "indexed": true,
          "internalType": "bytes32",
          "name": "role",
          "type": "bytes32"
        },
        {
          "indexed": true,
          "internalType": "address",
          "name": "account",
          "type": "address"
        },
        {
          "indexed": true,
          "internalType": "address",
          "name": "sender",
          "type": "address"
        }
      ],
      "name": "RoleRevoked",
      "type": "event"
    },
    {
      "anonymous": false,
      "inputs": [
        {
          "indexed": false,
          "internalType": "address",
          "name": "account",
          "type": "address"
        }
      ],
      "name": "Unpaused",
      "type": "event"
    },
    {
      "inputs": [],
      "name": "DEFAULT_ADMIN_ROLE",
      "outputs": [
        {
          "internalType": "bytes32",
          "name": "",
          "type": "bytes32"
        }
      ],
      "stateMutability": "view",
      "type": "function"
    },
    {
      "inputs": [],
      "name": "FEE_SETTER_ROLE",
      "outputs": [
        {
          "internalType": "bytes32",
          "name": "",
          "type": "bytes32"
        }
      ],
      "stateMutability": "view",
      "type": "function"
    },
    {
      "inputs": [],
      "name": "RELAYER_ROLE",
      "outputs": [
        {
          "internalType": "bytes32",
          "name": "",
          "type": "bytes32"
        }
      ],
      "stateMutability": "view",
      "type": "function"
    },
    {
      "inputs": [],
      "name": "_chainID",
      "outputs": [
        {
          "internalType": "uint8",
          "name": "",
          "type": "uint8"
        }
      ],
      "stateMutability": "view",
      "type": "function"
    },
    {
      "inputs": [
        {
          "internalType": "uint8",
          "name": "",
          "type": "uint8"
        }
      ],
      "name": "_depositCounts",
      "outputs": [
        {
          "internalType": "uint64",
          "name": "",
          "type": "uint64"
        }
      ],
      "stateMutability": "view",
      "type": "function"
    },
    {
      "inputs": [
        {
          "internalType": "uint8",
          "name": "",
          "type": "uint8"
        }
      ],
      "name": "_fees",
      "outputs": [
        {
          "internalType": "uint256",
          "name": "",
          "type": "uint256"
        }
      ],
      "stateMutability": "view",
      "type": "function"
    },
    {
      "inputs": [
        {
          "internalType": "uint72",
          "name": "",
          "type": "uint72"
        },
        {
          "internalType": "bytes32",
          "name": "",
          "type": "bytes32"
        },
        {
          "internalType": "address",
          "name": "",
          "type": "address"
        }
      ],
      "name": "_hasVotedOnProposal",
      "outputs": [
        {
          "internalType": "bool",
          "name": "",
          "type": "bool"
        }
      ],
      "stateMutability": "view",
      "type": "function"
    },
    {
      "inputs": [
        {
          "internalType": "uint72",
          "name": "",
          "type": "uint72"
        },
        {
          "internalType": "bytes32",
          "name": "",
          "type": "bytes32"
        }
      ],
      "name": "_proposals",
      "outputs": [
        {
          "internalType": "bytes32",
          "name": "_resourceID",
          "type": "bytes32"
        },
        {
          "internalType": "bytes32",
          "name": "_dataHash",
          "type": "bytes32"
        },
        {
          "internalType": "enum Bridge.ProposalStatus",
          "name": "_status",
          "type": "uint8"
        },
        {
          "internalType": "uint256",
          "name": "_proposedBlock",
          "type": "uint256"
        }
      ],
      "stateMutability": "view",
      "type": "function"
    },
    {
      "inputs": [],
      "name": "_relayerThreshold",
      "outputs": [
        {
          "internalType": "uint256",
          "name": "",
          "type": "uint256"
        }
      ],
      "stateMutability": "view",
      "type": "function"
    },
    {
      "inputs": [
        {
          "internalType": "bytes32",
          "name": "",
          "type": "bytes32"
        }
      ],
      "name": "_resourceIDToHandlerAddress",
      "outputs": [
        {
          "internalType": "address",
          "name": "",
          "type": "address"
        }
      ],
      "stateMutability": "view",
      "type": "function"
    },
    {
      "inputs": [],
      "name": "_totalProposals",
      "outputs": [
        {
          "internalType": "uint256",
          "name": "",
          "type": "uint256"
        }
      ],
      "stateMutability": "view",
      "type": "function"
    },
    {
      "inputs": [],
      "name": "_totalRelayers",
      "outputs": [
        {
          "internalType": "uint256",
          "name": "",
          "type": "uint256"
        }
      ],
      "stateMutability": "view",
      "type": "function"
    },
    {
      "inputs": [
        {
          "internalType": "bytes32",
          "name": "role",
          "type": "bytes32"
        }
      ],
      "name": "getRoleAdmin",
      "outputs": [
        {
          "internalType": "bytes32",
          "name": "",
          "type": "bytes32"
        }
      ],
      "stateMutability": "view",
      "type": "function"
    },
    {
      "inputs": [
        {
          "internalType": "bytes32",
          "name": "role",
          "type": "bytes32"
        },
        {
          "internalType": "uint256",
          "name": "index",
          "type": "uint256"
        }
      ],
      "name": "getRoleMember",
      "outputs": [
        {
          "internalType": "address",
          "name": "",
          "type": "address"
        }
      ],
      "stateMutability": "view",
      "type": "function"
    },
    {
      "inputs": [
        {
          "internalType": "bytes32",
          "name": "role",
          "type": "bytes32"
        }
      ],
      "name": "getRoleMemberCount",
      "outputs": [
        {
          "internalType": "uint256",
          "name": "",
          "type": "uint256"
        }
      ],
      "stateMutability": "view",
      "type": "function"
    },
    {
      "inputs": [
        {
          "internalType": "bytes32",
          "name": "role",
          "type": "bytes32"
        },
        {
          "internalType": "address",
          "name": "account",
          "type": "address"
        }
      ],
      "name": "grantRole",
      "outputs": [],
      "stateMutability": "nonpayable",
      "type": "function"
    },
    {
      "inputs": [
        {
          "internalType": "bytes32",
          "name": "role",
          "type": "bytes32"
        },
        {
          "internalType": "address",
          "name": "account",
          "type": "address"
        }
      ],
      "name": "hasRole",
      "outputs": [
        {
          "internalType": "bool",
          "name": "",
          "type": "bool"
        }
      ],
      "stateMutability": "view",
      "type": "function"
    },
    {
      "inputs": [],
      "name": "paused",
      "outputs": [
        {
          "internalType": "bool",
          "name": "",
          "type": "bool"
        }
      ],
      "stateMutability": "view",
      "type": "function"
    },
    {
      "inputs": [
        {
          "internalType": "bytes32",
          "name": "role",
          "type": "bytes32"
        },
        {
          "internalType": "address",
          "name": "account",
          "type": "address"
        }
      ],
      "name": "renounceRole",
      "outputs": [],
      "stateMutability": "nonpayable",
      "type": "function"
    },
    {
      "inputs": [
        {
          "internalType": "bytes32",
          "name": "role",
          "type": "bytes32"
        },
        {
          "internalType": "address",
          "name": "account",
          "type": "address"
        }
      ],
      "name": "revokeRole",
      "outputs": [],
      "stateMutability": "nonpayable",
      "type": "function"
    },
    {
      "inputs": [
        {
          "internalType": "address",
          "name": "relayer",
          "type": "address"
        }
      ],
      "name": "isRelayer",
      "outputs": [
        {
          "internalType": "bool",
          "name": "",
          "type": "bool"
        }
      ],
      "stateMutability": "view",
      "type": "function"
    },
    {
      "inputs": [
        {
          "internalType": "address",
          "name": "newAdmin",
          "type": "address"
        }
      ],
      "name": "renounceAdmin",
      "outputs": [],
      "stateMutability": "nonpayable",
      "type": "function"
    },
    {
      "inputs": [],
      "name": "adminPauseTransfers",
      "outputs": [],
      "stateMutability": "nonpayable",
      "type": "function"
    },
    {
      "inputs": [],
      "name": "adminUnpauseTransfers",
      "outputs": [],
      "stateMutability": "nonpayable",
      "type": "function"
    },
    {
      "inputs": [
        {
          "internalType": "uint256",
          "name": "newThreshold",
          "type": "uint256"
        }
      ],
      "name": "adminChangeRelayerThreshold",
      "outputs": [],
      "stateMutability": "nonpayable",
      "type": "function"
    },
    {
      "inputs": [
        {
          "internalType": "address",
          "name": "relayerAddress",
          "type": "address"
        }
      ],
      "name": "adminAddRelayer",
      "outputs": [],
      "stateMutability": "nonpayable",
      "type": "function"
    },
    {
      "inputs": [
        {
          "internalType": "address",
          "name": "relayerAddress",
          "type": "address"
        }
      ],
      "name": "adminRemoveRelayer",
      "outputs": [],
      "stateMutability": "nonpayable",
      "type": "function"
    },
    {
      "inputs": [
        {
          "internalType": "address",
          "name": "handlerAddress",
          "type": "address"
        },
        {
          "internalType": "bytes32",
          "name": "resourceID",
          "type": "bytes32"
        },
        {
          "internalType": "address",
          "name": "tokenAddress",
          "type": "address"
        }
      ],
      "name": "adminSetResource",
      "outputs": [],
      "stateMutability": "nonpayable",
      "type": "function"
    },
    {
      "inputs": [
        {
          "internalType": "address",
          "name": "handlerAddress",
          "type": "address"
        },
        {
          "internalType": "bytes32",
          "name": "resourceID",
          "type": "bytes32"
        },
        {
          "internalType": "address",
          "name": "contractAddress",
          "type": "address"
        },
        {
          "internalType": "bytes4",
          "name": "depositFunctionSig",
          "type": "bytes4"
        },
        {
          "internalType": "bytes4",
          "name": "executeFunctionSig",
          "type": "bytes4"
        }
      ],
      "name": "adminSetGenericResource",
      "outputs": [],
      "stateMutability": "nonpayable",
      "type": "function"
    },
    {
      "inputs": [
        {
          "internalType": "address",
          "name": "handlerAddress",
          "type": "address"
        },
        {
          "internalType": "address",
          "name": "tokenAddress",
          "type": "address"
        }
      ],
      "name": "adminSetBurnable",
      "outputs": [],
      "stateMutability": "nonpayable",
      "type": "function"
    },
    {
      "inputs": [
        {
          "internalType": "uint8",
          "name": "originChainID",
          "type": "uint8"
        },
        {
          "internalType": "uint64",
          "name": "depositNonce",
          "type": "uint64"
        },
        {
          "internalType": "bytes32",
          "name": "dataHash",
          "type": "bytes32"
        }
      ],
      "name": "getProposal",
      "outputs": [
        {
          "components": [
            {
              "internalType": "bytes32",
              "name": "_resourceID",
              "type": "bytes32"
            },
            {
              "internalType": "bytes32",
              "name": "_dataHash",
              "type": "bytes32"
            },
            {
              "internalType": "address[]",
              "name": "_yesVotes",
              "type": "address[]"
            },
            {
              "internalType": "address[]",
              "name": "_noVotes",
              "type": "address[]"
            },
            {
              "internalType": "enum Bridge.ProposalStatus",
              "name": "_status",
              "type": "uint8"
            },
            {
              "internalType": "uint256",
              "name": "_proposedBlock",
              "type": "uint256"
            }
          ],
          "internalType": "struct Bridge.Proposal",
          "name": "",
          "type": "tuple"
        }
      ],
      "stateMutability": "view",
      "type": "function"
    },
    {
      "inputs": [
        {
          "internalType": "uint8",
          "name": "destinationChainID",
          "type": "uint8"
        },
        {
          "internalType": "uint256",
          "name": "newFee",
          "type": "uint256"
        }
      ],
      "name": "changeFee",
      "outputs": [],
      "stateMutability": "nonpayable",
      "type": "function"
    },
    {
      "inputs": [
        {
          "internalType": "address",
          "name": "handlerAddress",
          "type": "address"
        },
        {
          "internalType": "address",
          "name": "tokenAddress",
          "type": "address"
        },
        {
          "internalType": "address",
          "name": "recipient",
          "type": "address"
        },
        {
          "internalType": "uint256",
          "name": "amountOrTokenID",
          "type": "uint256"
        }
      ],
      "name": "adminWithdraw",
      "outputs": [],
      "stateMutability": "nonpayable",
      "type": "function"
    },
    {
      "inputs": [
        {
          "internalType": "uint8",
          "name": "destinationChainID",
          "type": "uint8"
        },
        {
          "internalType": "bytes32",
          "name": "resourceID",
          "type": "bytes32"
        },
        {
          "internalType": "bytes",
          "name": "data",
          "type": "bytes"
        },
        {
          "internalType": "bytes",
          "name": "_auxData",
          "type": "bytes"
        }
      ],
      "name": "deposit",
      "outputs": [],
      "stateMutability": "payable",
      "type": "function"
    },
    {
      "inputs": [
        {
          "internalType": "uint8",
          "name": "chainID",
          "type": "uint8"
        },
        {
          "internalType": "uint64",
          "name": "depositNonce",
          "type": "uint64"
        },
        {
          "internalType": "bytes32",
          "name": "resourceID",
          "type": "bytes32"
        },
        {
          "internalType": "bytes",
          "name": "data",
          "type": "bytes"
        }
      ],
      "name": "voteProposal",
      "outputs": [],
      "stateMutability": "nonpayable",
      "type": "function"
    },
    {
      "inputs": [
        {
          "internalType": "address payable[]",
          "name": "addrs",
          "type": "address[]"
        },
        {
          "internalType": "uint256[]",
          "name": "amounts",
          "type": "uint256[]"
        }
      ],
      "name": "transferFunds",
      "outputs": [],
      "stateMutability": "nonpayable",
      "type": "function"
    }
  ],
  "bytecode": "0x60806040523480156200001157600080fd5b506040516200439b3803806200439b8339818101604052810190620000379190620004d3565b60008060006101000a81548160ff02191690831515021790555082600260006101000a81548160ff021916908360ff16021790555080600381905550620000886000801b336200014b60201b60201c565b620000af6040516200009a9062000645565b6040518091039020336200014b60201b60201c565b620000d9604051620000c1906200062e565b60405180910390206000801b6200016160201b60201c565b60005b8251811015620001415762000121604051620000f8906200062e565b60405180910390208483815181106200010d57fe5b60200260200101516200018060201b60201c565b6004600081548092919060010191905055508080600101915050620000dc565b505050506200078a565b6200015d82826200020f60201b60201c565b5050565b8060016000848152602001908152602001600020600201819055505050565b620001b76001600084815260200190815260200160002060020154620001ab620002b360201b60201c565b620002bb60201b60201c565b620001f9576040517f08c379a0000000000000000000000000000000000000000000000000000000008152600401620001f0906200065c565b60405180910390fd5b6200020b82826200020f60201b60201c565b5050565b6200023e8160016000858152602001908152602001600020600001620002f460201b620021b21790919060201c565b15620002af5762000254620002b360201b60201c565b73ffffffffffffffffffffffffffffffffffffffff168173ffffffffffffffffffffffffffffffffffffffff16837f2f8788117e7eff1d82e926ec794901d17c78024a50270940304540a733656f0d60405160405180910390a45b5050565b600033905090565b6000620002ec82600160008681526020019081526020016000206000016200032c60201b620020b41790919060201c565b905092915050565b600062000324836000018373ffffffffffffffffffffffffffffffffffffffff1660001b6200036460201b60201c565b905092915050565b60006200035c836000018373ffffffffffffffffffffffffffffffffffffffff1660001b620003de60201b60201c565b905092915050565b6000620003788383620003de60201b60201c565b620003d3578260000182908060018154018082558091505060019003906000526020600020016000909190919091505582600001805490508360010160008481526020019081526020016000208190555060019050620003d8565b600090505b92915050565b600080836001016000848152602001908152602001600020541415905092915050565b60008151905062000412816200073c565b92915050565b600082601f8301126200042a57600080fd5b8151620004416200043b82620006ac565b6200067e565b915081818352602084019350602081019050838560208402820111156200046757600080fd5b60005b838110156200049b578162000480888262000401565b8452602084019350602083019250506001810190506200046a565b5050505092915050565b600081519050620004b68162000756565b92915050565b600081519050620004cd8162000770565b92915050565b600080600060608486031215620004e957600080fd5b6000620004f986828701620004bc565b935050602084015167ffffffffffffffff8111156200051757600080fd5b620005258682870162000418565b92505060406200053886828701620004a5565b9150509250925092565b600062000551602f83620006d5565b91507f416363657373436f6e74726f6c3a2073656e646572206d75737420626520616e60008301527f2061646d696e20746f206772616e7400000000000000000000000000000000006020830152604082019050919050565b6000620005b9600c83620006e6565b91507f52454c415945525f524f4c4500000000000000000000000000000000000000006000830152600c82019050919050565b6000620005fb600f83620006e6565b91507f4645455f5345545445525f524f4c4500000000000000000000000000000000006000830152600f82019050919050565b60006200063b82620005aa565b9150819050919050565b60006200065282620005ec565b9150819050919050565b60006020820190508181036000830152620006778162000542565b9050919050565b6000604051905081810181811067ffffffffffffffff82111715620006a257600080fd5b8060405250919050565b600067ffffffffffffffff821115620006c457600080fd5b602082029050602081019050919050565b600082825260208201905092915050565b600081905092915050565b6000620006fe8262000705565b9050919050565b600073ffffffffffffffffffffffffffffffffffffffff82169050919050565b6000819050919050565b600060ff82169050919050565b6200074781620006f1565b81146200075357600080fd5b50565b620007618162000725565b81146200076d57600080fd5b50565b6200077b816200072f565b81146200078757600080fd5b50565b613c01806200079a6000396000f3fe60806040526004361061020f5760003560e01c80639010d07c11610118578063c0331b3e116100a0578063d547741f1161006f578063d547741f146107d7578063d7a9cd7914610800578063e8437ee71461082b578063e934768314610854578063ffaac0eb1461087f5761020f565b8063c0331b3e1461071f578063ca15c87314610748578063cb10f21514610785578063cdb0f73a146107ae5761020f565b80639d82dd63116100e75780639d82dd6314610626578063a217fddf1461064f578063a49e88d91461067a578063a9cf69fa146106b7578063beab7131146106f45761020f565b80639010d07c1461055657806391d1485414610593578063926d7d7f146105d05780639d5773e0146105fb5761020f565b80635c975abb1161019b5780637febe63f1161016a5780637febe63f14610471578063802aabe8146104ae57806380ae1c28146104d957806384db809f146104f05780638c0c26311461052d5761020f565b80635c975abb146103d85780635e1fab0f1461040357806373c45c981461042c578063780cf004146104485761020f565b80634603ae38116101e25780634603ae38146102cc5780634b0b919d146102f55780634e05600514610332578063505987191461035b578063541d55481461039b5761020f565b806313a7e54e14610214578063248a9ca31461023d5780632f2ff15d1461027a57806336568abe146102a3575b600080fd5b34801561022057600080fd5b5061023b60048036038101906102369190612b3a565b610896565b005b34801561024957600080fd5b50610264600480360381019061025f9190612921565b610914565b60405161027191906134eb565b60405180910390f35b34801561028657600080fd5b506102a1600480360381019061029c919061294a565b610934565b005b3480156102af57600080fd5b506102ca60048036038101906102c5919061294a565b6109a8565b005b3480156102d857600080fd5b506102f360048036038101906102ee91906128ac565b610a2b565b005b34801561030157600080fd5b5061031c60048036038101906103179190612a76565b610ad1565b60405161032991906138ed565b60405180910390f35b34801561033e57600080fd5b50610359600480360381019061035491906129c2565b610af8565b005b34801561036757600080fd5b50610382600480360381019061037d91906129eb565b610b37565b604051610392949392919061359d565b60405180910390f35b3480156103a757600080fd5b506103c260048036038101906103bd91906126f5565b610b81565b6040516103cf91906134d0565b60405180910390f35b3480156103e457600080fd5b506103ed610ba7565b6040516103fa91906134d0565b60405180910390f35b34801561040f57600080fd5b5061042a600480360381019061042591906126f5565b610bbd565b005b61044660048036038101906104419190612a9f565b610be2565b005b34801561045457600080fd5b5061046f600480360381019061046a9190612783565b610e0a565b005b34801561047d57600080fd5b5061049860048036038101906104939190612a27565b610e8d565b6040516104a591906134d0565b60405180910390f35b3480156104ba57600080fd5b506104c3610ec9565b6040516104d091906138d2565b60405180910390f35b3480156104e557600080fd5b506104ee610ecf565b005b3480156104fc57600080fd5b5061051760048036038101906105129190612921565b610ee1565b6040516105249190613463565b60405180910390f35b34801561053957600080fd5b50610554600480360381019061054f9190612747565b610f14565b005b34801561056257600080fd5b5061057d60048036038101906105789190612986565b610f91565b60405161058a9190613463565b60405180910390f35b34801561059f57600080fd5b506105ba60048036038101906105b5919061294a565b610fc3565b6040516105c791906134d0565b60405180910390f35b3480156105dc57600080fd5b506105e5610ff5565b6040516105f291906134eb565b60405180910390f35b34801561060757600080fd5b5061061061100c565b60405161061d91906138d2565b60405180910390f35b34801561063257600080fd5b5061064d600480360381019061064891906126f5565b611012565b005b34801561065b57600080fd5b506106646110ec565b60405161067191906134eb565b60405180910390f35b34801561068657600080fd5b506106a1600480360381019061069c9190612a76565b6110f3565b6040516106ae91906138d2565b60405180910390f35b3480156106c357600080fd5b506106de60048036038101906106d99190612b76565b61110b565b6040516106eb91906138b0565b60405180910390f35b34801561070057600080fd5b506107096112ec565b6040516107169190613908565b60405180910390f35b34801561072b57600080fd5b5061074660048036038101906107419190612bc5565b6112ff565b005b34801561075457600080fd5b5061076f600480360381019061076a9190612921565b611b22565b60405161077c91906138d2565b60405180910390f35b34801561079157600080fd5b506107ac60048036038101906107a791906127e6565b611b49565b005b3480156107ba57600080fd5b506107d560048036038101906107d091906126f5565b611c1b565b005b3480156107e357600080fd5b506107fe60048036038101906107f9919061294a565b611cf5565b005b34801561080c57600080fd5b50610815611d69565b60405161082291906138d2565b60405180910390f35b34801561083757600080fd5b50610852600480360381019061084d9190612835565b611d6f565b005b34801561086057600080fd5b50610869611e47565b60405161087691906134eb565b60405180910390f35b34801561088b57600080fd5b50610894611e5e565b005b6108b36040516108a59061344e565b604051809103902033610fc3565b6108f2576040517f08c379a00000000000000000000000000000000000000000000000000000000081526004016108e9906137d0565b60405180910390fd5b80600a60008460ff1660ff168152602001908152602001600020819055505050565b600060016000838152602001908152602001600020600201549050919050565b61095b6001600084815260200190815260200160002060020154610956611e70565b610fc3565b61099a576040517f08c379a000000000000000000000000000000000000000000000000000000000815260040161099190613690565b60405180910390fd5b6109a48282611e78565b5050565b6109b0611e70565b73ffffffffffffffffffffffffffffffffffffffff168173ffffffffffffffffffffffffffffffffffffffff1614610a1d576040517f08c379a0000000000000000000000000000000000000000000000000000000008152600401610a1490613870565b60405180910390fd5b610a278282611f0c565b5050565b610a33611fa0565b60008090505b84849050811015610aca57848482818110610a5057fe5b9050602002016020810190610a65919061271e565b73ffffffffffffffffffffffffffffffffffffffff166108fc848484818110610a8a57fe5b905060200201359081150290604051600060405180830381858888f19350505050158015610abc573d6000803e3d6000fd5b508080600101915050610a39565b5050505050565b60066020528060005260406000206000915054906101000a900467ffffffffffffffff1681565b610b00611fa0565b80600381905550807fa20d6b84cd798a24038be305eff8a45ca82ef54a2aa2082005d8e14c0a4746c860405160405180910390a250565b6008602052816000526040600020602052806000526040600020600091509150508060000154908060010154908060040160009054906101000a900460ff16908060050154905084565b6000610ba0604051610b9290613439565b604051809103902083610fc3565b9050919050565b60008060009054906101000a900460ff16905090565b610bc5611fa0565b610bd26000801b82610934565b610bdf6000801b336109a8565b50565b610bea611fee565b600a60008760ff1660ff168152602001908152602001600020543414610c45576040517f08c379a0000000000000000000000000000000000000000000000000000000008152600401610c3c90613710565b60405180910390fd5b60006007600087815260200190815260200160002060009054906101000a900473ffffffffffffffffffffffffffffffffffffffff169050600073ffffffffffffffffffffffffffffffffffffffff168173ffffffffffffffffffffffffffffffffffffffff161415610ced576040517f08c379a0000000000000000000000000000000000000000000000000000000008152600401610ce490613750565b60405180910390fd5b6000600660008960ff1660ff168152602001908152602001600020600081819054906101000a900467ffffffffffffffff1660010191906101000a81548167ffffffffffffffff021916908367ffffffffffffffff1602179055905060008290508073ffffffffffffffffffffffffffffffffffffffff166338995da9898b85338c8c6040518763ffffffff1660e01b8152600401610d9196959493929190613614565b600060405180830381600087803b158015610dab57600080fd5b505af1158015610dbf573d6000803e3d6000fd5b505050508167ffffffffffffffff16888a60ff167fdbb69440df8433824a026ef190652f29929eb64b4d1d5d2a69be8afe3e6eaed860405160405180910390a4505050505050505050565b610e12611fa0565b60008490508073ffffffffffffffffffffffffffffffffffffffff1663d9caed128585856040518463ffffffff1660e01b8152600401610e5493929190613499565b600060405180830381600087803b158015610e6e57600080fd5b505af1158015610e82573d6000803e3d6000fd5b505050505050505050565b6009602052826000526040600020602052816000526040600020602052806000526040600020600092509250509054906101000a900460ff1681565b60045481565b610ed7611fa0565b610edf61203f565b565b60076020528060005260406000206000915054906101000a900473ffffffffffffffffffffffffffffffffffffffff1681565b610f1c611fa0565b60008290508073ffffffffffffffffffffffffffffffffffffffff166307b7ed99836040518263ffffffff1660e01b8152600401610f5a9190613463565b600060405180830381600087803b158015610f7457600080fd5b505af1158015610f88573d6000803e3d6000fd5b50505050505050565b6000610fbb826001600086815260200190815260200160002060000161209a90919063ffffffff16565b905092915050565b6000610fed82600160008681526020019081526020016000206000016120b490919063ffffffff16565b905092915050565b60405161100190613439565b604051809103902081565b60055481565b61101a611fa0565b61103760405161102990613439565b604051809103902082610fc3565b611076576040517f08c379a000000000000000000000000000000000000000000000000000000000815260040161106d906136f0565b60405180910390fd5b61109360405161108590613439565b604051809103902082611cf5565b8073ffffffffffffffffffffffffffffffffffffffff167f10e1f7ce9fd7d1b90a66d13a2ab3cb8dd7f29f3f8d520b143b063ccfbab6906b60405160405180910390a26004600081548092919060019003919050555050565b6000801b81565b600a6020528060005260406000206000915090505481565b61111361245b565b60008460ff1660088567ffffffffffffffff1668ffffffffffffffffff16901b179050600860008268ffffffffffffffffff1668ffffffffffffffffff16815260200190815260200160002060008481526020019081526020016000206040518060c001604052908160008201548152602001600182015481526020016002820180548060200260200160405190810160405280929190818152602001828054801561121457602002820191906000526020600020905b8160009054906101000a900473ffffffffffffffffffffffffffffffffffffffff1673ffffffffffffffffffffffffffffffffffffffff16815260200190600101908083116111ca575b50505050508152602001600382018054806020026020016040519081016040528092919081815260200182805480156112a257602002820191906000526020600020905b8160009054906101000a900473ffffffffffffffffffffffffffffffffffffffff1673ffffffffffffffffffffffffffffffffffffffff1681526020019060010190808311611258575b505050505081526020016004820160009054906101000a900460ff1660028111156112c957fe5b60028111156112d457fe5b81526020016005820154815250509150509392505050565b600260009054906101000a900460ff1681565b6113076120e4565b61130f611fee565b60006007600085815260200190815260200160002060009054906101000a900473ffffffffffffffffffffffffffffffffffffffff169050600081848460405160200161135e9392919061340f565b60405160208183030381529060405280519060200120905060008760ff1660088867ffffffffffffffff1668ffffffffffffffffff16901b1790506000600860008368ffffffffffffffffff1668ffffffffffffffffff16815260200190815260200160002060008481526020019081526020016000209050600073ffffffffffffffffffffffffffffffffffffffff166007600089815260200190815260200160002060009054906101000a900473ffffffffffffffffffffffffffffffffffffffff1673ffffffffffffffffffffffffffffffffffffffff16141561147a576040517f08c379a000000000000000000000000000000000000000000000000000000000815260040161147190613850565b60405180910390fd5b60018160040160009054906101000a900460ff16600281111561149957fe5b11156114da576040517f08c379a00000000000000000000000000000000000000000000000000000000081526004016114d190613890565b60405180910390fd5b600960008368ffffffffffffffffff1668ffffffffffffffffff168152602001908152602001600020600084815260200190815260200160002060003373ffffffffffffffffffffffffffffffffffffffff1673ffffffffffffffffffffffffffffffffffffffff16815260200190815260200160002060009054906101000a900460ff161561159f576040517f08c379a0000000000000000000000000000000000000000000000000000000008152600401611596906136b0565b60405180910390fd5b60008160040160009054906101000a900460ff1660028111156115be57fe5b14156117de57600560008154600101919050819055506040518060c00160405280888152602001848152602001600160405190808252806020026020018201604052801561161b5781602001602082028036833780820191505090505b50815260200160006040519080825280602002602001820160405280156116515781602001602082028036833780820191505090505b5081526020016001600281111561166457fe5b815260200143815250600860008468ffffffffffffffffff1668ffffffffffffffffff1681526020019081526020016000206000858152602001908152602001600020600082015181600001556020820151816001015560408201518160020190805190602001906116d79291906124a2565b5060608201518160030190805190602001906116f49291906124a2565b5060808201518160040160006101000a81548160ff0219169083600281111561171957fe5b021790555060a08201518160050155905050338160020160008154811061173c57fe5b9060005260206000200160006101000a81548173ffffffffffffffffffffffffffffffffffffffff021916908373ffffffffffffffffffffffffffffffffffffffff1602179055506001600281111561179157fe5b8867ffffffffffffffff168a60ff167f803c5a12f6bde629cea32e63d4b92d1b560816a6fb72e939d3c89e1cab6504178a876040516117d1929190613574565b60405180910390a461188a565b80600101548314611824576040517f08c379a000000000000000000000000000000000000000000000000000000000815260040161181b90613830565b60405180910390fd5b80600201339080600181540180825580915050600190039060005260206000200160009091909190916101000a81548173ffffffffffffffffffffffffffffffffffffffff021916908373ffffffffffffffffffffffffffffffffffffffff1602179055505b6001600960008468ffffffffffffffffff1668ffffffffffffffffff168152602001908152602001600020600085815260200190815260200160002060003373ffffffffffffffffffffffffffffffffffffffff1673ffffffffffffffffffffffffffffffffffffffff16815260200190815260200160002060006101000a81548160ff0219169083151502179055508060040160009054906101000a900460ff16600281111561193757fe5b8867ffffffffffffffff168a60ff167f25f8daaa4635a7729927ba3f5b3d59cc3320aca7c32c9db4e7ca7b95743436408a60405161197591906134eb565b60405180910390a4600354816002018054905010611b1757806001015483146119d3576040517f08c379a00000000000000000000000000000000000000000000000000000000081526004016119ca90613730565b60405180910390fd5b60028160040160006101000a81548160ff021916908360028111156119f457fe5b02179055506000600760008360000154815260200190815260200160002060009054906101000a900473ffffffffffffffffffffffffffffffffffffffff1690508073ffffffffffffffffffffffffffffffffffffffff1663e248cff2836000015489896040518463ffffffff1660e01b8152600401611a76939291906135e2565b600060405180830381600087803b158015611a9057600080fd5b505af1158015611aa4573d6000803e3d6000fd5b505050508160040160009054906101000a900460ff166002811115611ac557fe5b8967ffffffffffffffff168b60ff167f803c5a12f6bde629cea32e63d4b92d1b560816a6fb72e939d3c89e1cab65041785600001548660010154604051611b0d929190613574565b60405180910390a4505b505050505050505050565b6000611b4260016000848152602001908152602001600020600001612142565b9050919050565b611b51611fa0565b826007600084815260200190815260200160002060006101000a81548173ffffffffffffffffffffffffffffffffffffffff021916908373ffffffffffffffffffffffffffffffffffffffff16021790555060008390508073ffffffffffffffffffffffffffffffffffffffff1663b8fa373684846040518363ffffffff1660e01b8152600401611be3929190613506565b600060405180830381600087803b158015611bfd57600080fd5b505af1158015611c11573d6000803e3d6000fd5b5050505050505050565b611c23611fa0565b611c40604051611c3290613439565b604051809103902082610fc3565b15611c80576040517f08c379a0000000000000000000000000000000000000000000000000000000008152600401611c77906137b0565b60405180910390fd5b611c9d604051611c8f90613439565b604051809103902082610934565b8073ffffffffffffffffffffffffffffffffffffffff167f03580ee9f53a62b7cb409a2cb56f9be87747dd15017afc5cef6eef321e4fb2c560405160405180910390a260046000815480929190600101919050555050565b611d1c6001600084815260200190815260200160002060020154611d17611e70565b610fc3565b611d5b576040517f08c379a0000000000000000000000000000000000000000000000000000000008152600401611d5290613770565b60405180910390fd5b611d658282611f0c565b5050565b60035481565b611d77611fa0565b846007600086815260200190815260200160002060006101000a81548173ffffffffffffffffffffffffffffffffffffffff021916908373ffffffffffffffffffffffffffffffffffffffff16021790555060008590508073ffffffffffffffffffffffffffffffffffffffff1663bba8185a868686866040518563ffffffff1660e01b8152600401611e0d949392919061352f565b600060405180830381600087803b158015611e2757600080fd5b505af1158015611e3b573d6000803e3d6000fd5b50505050505050505050565b604051611e539061344e565b604051809103902081565b611e66611fa0565b611e6e612157565b565b600033905090565b611ea081600160008581526020019081526020016000206000016121b290919063ffffffff16565b15611f0857611ead611e70565b73ffffffffffffffffffffffffffffffffffffffff168173ffffffffffffffffffffffffffffffffffffffff16837f2f8788117e7eff1d82e926ec794901d17c78024a50270940304540a733656f0d60405160405180910390a45b5050565b611f3481600160008581526020019081526020016000206000016121e290919063ffffffff16565b15611f9c57611f41611e70565b73ffffffffffffffffffffffffffffffffffffffff168173ffffffffffffffffffffffffffffffffffffffff16837ff6391f5c32d9c69d2a47ea670b442974b53935d1edc7fd64eb21e047a839171b60405160405180910390a45b5050565b611fad6000801b33610fc3565b611fec576040517f08c379a0000000000000000000000000000000000000000000000000000000008152600401611fe390613810565b60405180910390fd5b565b6000809054906101000a900460ff161561203d576040517f08c379a000000000000000000000000000000000000000000000000000000000815260040161203490613790565b60405180910390fd5b565b612047611fee565b60016000806101000a81548160ff0219169083151502179055507f62e78cea01bee320cd4e420270b5ea74000d11b0c9f74754ebdbfc544b05a25833604051612090919061347e565b60405180910390a1565b60006120a98360000183612212565b60001c905092915050565b60006120dc836000018373ffffffffffffffffffffffffffffffffffffffff1660001b61227f565b905092915050565b6121016040516120f390613439565b604051809103902033610fc3565b612140576040517f08c379a0000000000000000000000000000000000000000000000000000000008152600401612137906137f0565b60405180910390fd5b565b6000612150826000016122a2565b9050919050565b61215f6122b3565b60008060006101000a81548160ff0219169083151502179055507f5db9ee0a495bf2e6ff9c91a7834c1ba4fdd244a5e8aa4e537bd38aeae4b073aa336040516121a8919061347e565b60405180910390a1565b60006121da836000018373ffffffffffffffffffffffffffffffffffffffff1660001b612303565b905092915050565b600061220a836000018373ffffffffffffffffffffffffffffffffffffffff1660001b612373565b905092915050565b60008183600001805490501161225d576040517f08c379a000000000000000000000000000000000000000000000000000000000815260040161225490613670565b60405180910390fd5b82600001828154811061226c57fe5b9060005260206000200154905092915050565b600080836001016000848152602001908152602001600020541415905092915050565b600081600001805490509050919050565b6000809054906101000a900460ff16612301576040517f08c379a00000000000000000000000000000000000000000000000000000000081526004016122f8906136d0565b60405180910390fd5b565b600061230f838361227f565b61236857826000018290806001815401808255809150506001900390600052602060002001600090919091909150558260000180549050836001016000848152602001908152602001600020819055506001905061236d565b600090505b92915050565b6000808360010160008481526020019081526020016000205490506000811461244f57600060018203905060006001866000018054905003905060008660000182815481106123be57fe5b90600052602060002001549050808760000184815481106123db57fe5b906000526020600020018190555060018301876001016000838152602001908152602001600020819055508660000180548061241357fe5b60019003818190600052602060002001600090559055866001016000878152602001908152602001600020600090556001945050505050612455565b60009150505b92915050565b6040518060c00160405280600080191681526020016000801916815260200160608152602001606081526020016000600281111561249557fe5b8152602001600081525090565b82805482825590600052602060002090810192821561251b579160200282015b8281111561251a5782518260006101000a81548173ffffffffffffffffffffffffffffffffffffffff021916908373ffffffffffffffffffffffffffffffffffffffff160217905550916020019190600101906124c2565b5b509050612528919061252c565b5090565b61256c91905b8082111561256857600081816101000a81549073ffffffffffffffffffffffffffffffffffffffff021916905550600101612532565b5090565b90565b60008135905061257e81613b13565b92915050565b60008135905061259381613b2a565b92915050565b60008083601f8401126125ab57600080fd5b8235905067ffffffffffffffff8111156125c457600080fd5b6020830191508360208202830111156125dc57600080fd5b9250929050565b60008083601f8401126125f557600080fd5b8235905067ffffffffffffffff81111561260e57600080fd5b60208301915083602082028301111561262657600080fd5b9250929050565b60008135905061263c81613b41565b92915050565b60008135905061265181613b58565b92915050565b60008083601f84011261266957600080fd5b8235905067ffffffffffffffff81111561268257600080fd5b60208301915083600182028301111561269a57600080fd5b9250929050565b6000813590506126b081613b6f565b92915050565b6000813590506126c581613b86565b92915050565b6000813590506126da81613b9d565b92915050565b6000813590506126ef81613bb4565b92915050565b60006020828403121561270757600080fd5b60006127158482850161256f565b91505092915050565b60006020828403121561273057600080fd5b600061273e84828501612584565b91505092915050565b6000806040838503121561275a57600080fd5b60006127688582860161256f565b92505060206127798582860161256f565b9150509250929050565b6000806000806080858703121561279957600080fd5b60006127a78782880161256f565b94505060206127b88782880161256f565b93505060406127c98782880161256f565b92505060606127da878288016126a1565b91505092959194509250565b6000806000606084860312156127fb57600080fd5b60006128098682870161256f565b935050602061281a8682870161262d565b925050604061282b8682870161256f565b9150509250925092565b600080600080600060a0868803121561284d57600080fd5b600061285b8882890161256f565b955050602061286c8882890161262d565b945050604061287d8882890161256f565b935050606061288e88828901612642565b925050608061289f88828901612642565b9150509295509295909350565b600080600080604085870312156128c257600080fd5b600085013567ffffffffffffffff8111156128dc57600080fd5b6128e887828801612599565b9450945050602085013567ffffffffffffffff81111561290757600080fd5b612913878288016125e3565b925092505092959194509250565b60006020828403121561293357600080fd5b60006129418482850161262d565b91505092915050565b6000806040838503121561295d57600080fd5b600061296b8582860161262d565b925050602061297c8582860161256f565b9150509250929050565b6000806040838503121561299957600080fd5b60006129a78582860161262d565b92505060206129b8858286016126a1565b9150509250929050565b6000602082840312156129d457600080fd5b60006129e2848285016126a1565b91505092915050565b600080604083850312156129fe57600080fd5b6000612a0c858286016126cb565b9250506020612a1d8582860161262d565b9150509250929050565b600080600060608486031215612a3c57600080fd5b6000612a4a868287016126cb565b9350506020612a5b8682870161262d565b9250506040612a6c8682870161256f565b9150509250925092565b600060208284031215612a8857600080fd5b6000612a96848285016126e0565b91505092915050565b60008060008060008060808789031215612ab857600080fd5b6000612ac689828a016126e0565b9650506020612ad789828a0161262d565b955050604087013567ffffffffffffffff811115612af457600080fd5b612b0089828a01612657565b9450945050606087013567ffffffffffffffff811115612b1f57600080fd5b612b2b89828a01612657565b92509250509295509295509295565b60008060408385031215612b4d57600080fd5b6000612b5b858286016126e0565b9250506020612b6c858286016126a1565b9150509250929050565b600080600060608486031215612b8b57600080fd5b6000612b99868287016126e0565b9350506020612baa868287016126b6565b9250506040612bbb8682870161262d565b9150509250925092565b600080600080600060808688031215612bdd57600080fd5b6000612beb888289016126e0565b9550506020612bfc888289016126b6565b9450506040612c0d8882890161262d565b935050606086013567ffffffffffffffff811115612c2a57600080fd5b612c3688828901612657565b92509250509295509295909350565b6000612c518383612c6c565b60208301905092915050565b612c6681613a6d565b82525050565b612c7581613994565b82525050565b612c8481613994565b82525050565b612c9b612c9682613994565b613ac4565b82525050565b6000612cac82613933565b612cb6818561394b565b9350612cc183613923565b8060005b83811015612cf2578151612cd98882612c45565b9750612ce48361393e565b925050600181019050612cc5565b5085935050505092915050565b612d08816139b8565b82525050565b612d17816139c4565b82525050565b612d26816139c4565b82525050565b612d35816139ce565b82525050565b6000612d47838561395c565b9350612d54838584613ab5565b612d5d83613ae8565b840190509392505050565b6000612d74838561396d565b9350612d81838584613ab5565b82840190509392505050565b612d9681613a7f565b82525050565b612da581613a7f565b82525050565b6000612db8602283613978565b91507f456e756d657261626c655365743a20696e646578206f7574206f6620626f756e60008301527f64730000000000000000000000000000000000000000000000000000000000006020830152604082019050919050565b6000612e1e602f83613978565b91507f416363657373436f6e74726f6c3a2073656e646572206d75737420626520616e60008301527f2061646d696e20746f206772616e7400000000000000000000000000000000006020830152604082019050919050565b6000612e84601583613978565b91507f72656c6179657220616c726561647920766f74656400000000000000000000006000830152602082019050919050565b6000612ec4601483613978565b91507f5061757361626c653a206e6f74207061757365640000000000000000000000006000830152602082019050919050565b6000612f04601f83613978565b91507f6164647220646f65736e277420686176652072656c6179657220726f6c6521006000830152602082019050919050565b6000612f44601683613978565b91507f496e636f72726563742066656520737570706c696564000000000000000000006000830152602082019050919050565b6000612f84601b83613978565b91507f6461746120646f65736e2774206d6174636820646174616861736800000000006000830152602082019050919050565b6000612fc4602083613978565b91507f7265736f757263654944206e6f74206d617070656420746f2068616e646c65726000830152602082019050919050565b6000613004603083613978565b91507f416363657373436f6e74726f6c3a2073656e646572206d75737420626520616e60008301527f2061646d696e20746f207265766f6b65000000000000000000000000000000006020830152604082019050919050565b600061306a601083613978565b91507f5061757361626c653a20706175736564000000000000000000000000000000006000830152602082019050919050565b60006130aa601e83613978565b91507f6164647220616c7265616479206861732072656c6179657220726f6c652100006000830152602082019050919050565b60006130ea601883613978565b91507f73656e646572206973206e6f74206665652073657474657200000000000000006000830152602082019050919050565b600061312a602083613978565b91507f73656e64657220646f65736e277420686176652072656c6179657220726f6c656000830152602082019050919050565b600061316a601e83613978565b91507f73656e64657220646f65736e277420686176652061646d696e20726f6c6500006000830152602082019050919050565b60006131aa600c83613989565b91507f52454c415945525f524f4c4500000000000000000000000000000000000000006000830152600c82019050919050565b60006131ea601183613978565b91507f6461746168617368206d69736d617463680000000000000000000000000000006000830152602082019050919050565b600061322a600f83613989565b91507f4645455f5345545445525f524f4c4500000000000000000000000000000000006000830152600f82019050919050565b600061326a601983613978565b91507f6e6f2068616e646c657220666f72207265736f757263654944000000000000006000830152602082019050919050565b60006132aa602f83613978565b91507f416363657373436f6e74726f6c3a2063616e206f6e6c792072656e6f756e636560008301527f20726f6c657320666f722073656c6600000000000000000000000000000000006020830152604082019050919050565b6000613310601983613978565b91507f70726f706f73616c20616c7265616479206578656375746564000000000000006000830152602082019050919050565b600060c08301600083015161335b6000860182612d0e565b50602083015161336e6020860182612d0e565b50604083015184820360408601526133868282612ca1565b915050606083015184820360608601526133a08282612ca1565b91505060808301516133b56080860182612d8d565b5060a08301516133c860a08601826133d3565b508091505092915050565b6133dc81613a2d565b82525050565b6133eb81613a2d565b82525050565b6133fa81613a37565b82525050565b61340981613a60565b82525050565b600061341b8286612c8a565b60148201915061342c828486612d68565b9150819050949350505050565b60006134448261319d565b9150819050919050565b60006134598261321d565b9150819050919050565b60006020820190506134786000830184612c7b565b92915050565b60006020820190506134936000830184612c5d565b92915050565b60006060820190506134ae6000830186612c7b565b6134bb6020830185612c7b565b6134c860408301846133e2565b949350505050565b60006020820190506134e56000830184612cff565b92915050565b60006020820190506135006000830184612d1d565b92915050565b600060408201905061351b6000830185612d1d565b6135286020830184612c7b565b9392505050565b60006080820190506135446000830187612d1d565b6135516020830186612c7b565b61355e6040830185612d2c565b61356b6060830184612d2c565b95945050505050565b60006040820190506135896000830185612d1d565b6135966020830184612d1d565b9392505050565b60006080820190506135b26000830187612d1d565b6135bf6020830186612d1d565b6135cc6040830185612d9c565b6135d960608301846133e2565b95945050505050565b60006040820190506135f76000830186612d1d565b818103602083015261360a818486612d3b565b9050949350505050565b600060a0820190506136296000830189612d1d565b6136366020830188613400565b61364360408301876133f1565b6136506060830186612c5d565b8181036080830152613663818486612d3b565b9050979650505050505050565b6000602082019050818103600083015261368981612dab565b9050919050565b600060208201905081810360008301526136a981612e11565b9050919050565b600060208201905081810360008301526136c981612e77565b9050919050565b600060208201905081810360008301526136e981612eb7565b9050919050565b6000602082019050818103600083015261370981612ef7565b9050919050565b6000602082019050818103600083015261372981612f37565b9050919050565b6000602082019050818103600083015261374981612f77565b9050919050565b6000602082019050818103600083015261376981612fb7565b9050919050565b6000602082019050818103600083015261378981612ff7565b9050919050565b600060208201905081810360008301526137a98161305d565b9050919050565b600060208201905081810360008301526137c98161309d565b9050919050565b600060208201905081810360008301526137e9816130dd565b9050919050565b600060208201905081810360008301526138098161311d565b9050919050565b600060208201905081810360008301526138298161315d565b9050919050565b60006020820190508181036000830152613849816131dd565b9050919050565b600060208201905081810360008301526138698161325d565b9050919050565b600060208201905081810360008301526138898161329d565b9050919050565b600060208201905081810360008301526138a981613303565b9050919050565b600060208201905081810360008301526138ca8184613343565b905092915050565b60006020820190506138e760008301846133e2565b92915050565b600060208201905061390260008301846133f1565b92915050565b600060208201905061391d6000830184613400565b92915050565b6000819050602082019050919050565b600081519050919050565b6000602082019050919050565b600082825260208201905092915050565b600082825260208201905092915050565b600081905092915050565b600082825260208201905092915050565b600081905092915050565b600061399f82613a0d565b9050919050565b60006139b182613a0d565b9050919050565b60008115159050919050565b6000819050919050565b60007fffffffff0000000000000000000000000000000000000000000000000000000082169050919050565b6000819050613a0882613b06565b919050565b600073ffffffffffffffffffffffffffffffffffffffff82169050919050565b6000819050919050565b600067ffffffffffffffff82169050919050565b600068ffffffffffffffffff82169050919050565b600060ff82169050919050565b6000613a7882613a91565b9050919050565b6000613a8a826139fa565b9050919050565b6000613a9c82613aa3565b9050919050565b6000613aae82613a0d565b9050919050565b82818337600083830152505050565b6000613acf82613ad6565b9050919050565b6000613ae182613af9565b9050919050565b6000601f19601f8301169050919050565b60008160601b9050919050565b60038110613b1057fe5b50565b613b1c81613994565b8114613b2757600080fd5b50565b613b33816139a6565b8114613b3e57600080fd5b50565b613b4a816139c4565b8114613b5557600080fd5b50565b613b61816139ce565b8114613b6c57600080fd5b50565b613b7881613a2d565b8114613b8357600080fd5b50565b613b8f81613a37565b8114613b9a57600080fd5b50565b613ba681613a4b565b8114613bb157600080fd5b50565b613bbd81613a60565b8114613bc857600080fd5b5056fea26469706673582212209c78c02039d421a3eedf3bd035a56585f512802cf522eb429eef2a0b996c5cc464736f6c63430006040033",
  "source": "pragma solidity 0.6.4;\npragma experimental ABIEncoderV2;\n\nimport \"@openzeppelin/contracts/access/AccessControl.sol\";\nimport \"./utils/Pausable.sol\";\nimport \"./utils/SafeMath.sol\";\nimport \"./interfaces/IDepositExecute.sol\";\nimport \"./interfaces/IBridge.sol\";\nimport \"./interfaces/IERCHandler.sol\";\nimport \"./interfaces/IGenericHandler.sol\";\n\n/**\n    @title Facilitates deposits, creation and votiing of deposit proposals, and deposit executions.\n    @author ChainSafe Systems.\n */\ncontract Bridge is Pausable, AccessControl, SafeMath {\n\n    uint8   public _chainID;\n    uint256 public _relayerThreshold;\n    uint256 public _totalRelayers;\n    uint256 public _totalProposals;\n\n    enum Vote {No, Yes}\n\n    enum ProposalStatus {Inactive, Active, Executed}\n\n    struct Proposal {\n        bytes32 _resourceID;\n        bytes32 _dataHash;\n        address[] _yesVotes;\n        address[] _noVotes;\n        ProposalStatus _status;\n        uint256 _proposedBlock;\n    }\n\n    // destinationChainID => number of deposits\n    mapping(uint8 => uint64) public _depositCounts;\n    // resourceID => handler address\n    mapping(bytes32 => address) public _resourceIDToHandlerAddress;\n    // destinationChainID + depositNonce => dataHash => Proposal\n    mapping(uint72 => mapping(bytes32 => Proposal)) public _proposals;\n    // destinationChainID + depositNonce => dataHash => relayerAddress => bool\n    mapping(uint72 => mapping(bytes32 => mapping(address => bool))) public _hasVotedOnProposal;\n    // destinationChainID => deposit fee\n    mapping(uint8 => uint256) public _fees;\n\n    event RelayerThresholdChanged(uint indexed newThreshold);\n    event RelayerAdded(address indexed relayer);\n    event RelayerRemoved(address indexed relayer);\n    event Deposit(\n        uint8   indexed destinationChainID,\n        bytes32 indexed resourceID,\n        uint64  indexed depositNonce\n    );\n    event ProposalEvent(\n        uint8           indexed originChainID,\n        uint64          indexed depositNonce,\n        ProposalStatus  indexed status,\n        bytes32 resourceID,\n        bytes32 dataHash\n    );\n\n    event ProposalVote(\n        uint8   indexed originChainID,\n        uint64  indexed depositNonce,\n        ProposalStatus indexed status,\n        bytes32 resourceID\n    );\n\n    bytes32 public constant RELAYER_ROLE = keccak256(\"RELAYER_ROLE\");\n    bytes32 public constant FEE_SETTER_ROLE = keccak256(\"FEE_SETTER_ROLE\");\n\n    modifier onlyAdmin() {\n        _onlyAdmin();\n        _;\n    }\n\n    modifier onlyAdminOrRelayer() {\n        _onlyAdminOrRelayer();\n        _;\n    }\n\n    modifier onlyRelayers() {\n        _onlyRelayers();\n        _;\n    }\n\n    modifier onlyFeeSetter() {\n        require(hasRole(FEE_SETTER_ROLE, msg.sender), \"sender is not fee setter\");\n        _;\n    }\n\n    function _onlyAdminOrRelayer() private view {\n        require(hasRole(DEFAULT_ADMIN_ROLE, msg.sender) || hasRole(RELAYER_ROLE, msg.sender),\n            \"sender is not relayer or admin\");\n    }\n\n    function _onlyAdmin() private view {\n        require(hasRole(DEFAULT_ADMIN_ROLE, msg.sender), \"sender doesn't have admin role\");\n    }\n\n    function _onlyRelayers() private view {\n        require(hasRole(RELAYER_ROLE, msg.sender), \"sender doesn't have relayer role\");\n    }\n\n    /**\n        @notice Initializes Bridge, creates and grants {msg.sender} the admin role,\n        creates and grants {initialRelayers} the relayer role.\n        @param chainID ID of chain the Bridge contract exists on.\n        @param initialRelayers Addresses that should be initially granted the relayer role.\n        @param initialRelayerThreshold Number of votes needed for a deposit proposal to be considered passed.\n     */\n    constructor (uint8 chainID, address[] memory initialRelayers, uint initialRelayerThreshold) public {\n        _chainID = chainID;\n        _relayerThreshold = initialRelayerThreshold;\n\n        _setupRole(DEFAULT_ADMIN_ROLE, msg.sender);\n        _setupRole(FEE_SETTER_ROLE, msg.sender);\n        _setRoleAdmin(RELAYER_ROLE, DEFAULT_ADMIN_ROLE);\n\n        for (uint i; i < initialRelayers.length; i++) {\n            grantRole(RELAYER_ROLE, initialRelayers[i]);\n            _totalRelayers++;\n        }\n    }\n\n    /**\n        @notice Returns true if {relayer} has the relayer role.\n        @param relayer Address to check.\n     */\n    function isRelayer(address relayer) external view returns (bool) {\n        return hasRole(RELAYER_ROLE, relayer);\n    }\n\n    /**\n        @notice Removes admin role from {msg.sender} and grants it to {newAdmin}.\n        @notice Only callable by an address that currently has the admin role.\n        @param newAdmin Address that admin role will be granted to.\n     */\n    function renounceAdmin(address newAdmin) external onlyAdmin {\n        grantRole(DEFAULT_ADMIN_ROLE, newAdmin);\n        renounceRole(DEFAULT_ADMIN_ROLE, msg.sender);\n    }\n\n    /**\n        @notice Pauses deposits, proposal creation and voting, and deposit executions.\n        @notice Only callable by an address that currently has the admin role.\n     */\n    function adminPauseTransfers() external onlyAdmin {\n        _pause();\n    }\n\n    /**\n        @notice Unpauses deposits, proposal creation and voting, and deposit executions.\n        @notice Only callable by an address that currently has the admin role.\n     */\n    function adminUnpauseTransfers() external onlyAdmin {\n        _unpause();\n    }\n\n    /**\n        @notice Modifies the number of votes required for a proposal to be considered passed.\n        @notice Only callable by an address that currently has the admin role.\n        @param newThreshold Value {_relayerThreshold} will be changed to.\n        @notice Emits {RelayerThresholdChanged} event.\n     */\n    function adminChangeRelayerThreshold(uint newThreshold) external onlyAdmin {\n        _relayerThreshold = newThreshold;\n        emit RelayerThresholdChanged(newThreshold);\n    }\n\n    /**\n        @notice Grants {relayerAddress} the relayer role and increases {_totalRelayer} count.\n        @notice Only callable by an address that currently has the admin role.\n        @param relayerAddress Address of relayer to be added.\n        @notice Emits {RelayerAdded} event.\n     */\n    function adminAddRelayer(address relayerAddress) external onlyAdmin {\n        require(!hasRole(RELAYER_ROLE, relayerAddress), \"addr already has relayer role!\");\n        grantRole(RELAYER_ROLE, relayerAddress);\n        emit RelayerAdded(relayerAddress);\n        _totalRelayers++;\n    }\n\n    /**\n        @notice Removes relayer role for {relayerAddress} and decreases {_totalRelayer} count.\n        @notice Only callable by an address that currently has the admin role.\n        @param relayerAddress Address of relayer to be removed.\n        @notice Emits {RelayerRemoved} event.\n     */\n    function adminRemoveRelayer(address relayerAddress) external onlyAdmin {\n        require(hasRole(RELAYER_ROLE, relayerAddress), \"addr doesn't have relayer role!\");\n        revokeRole(RELAYER_ROLE, relayerAddress);\n        emit RelayerRemoved(relayerAddress);\n        _totalRelayers--;\n    }\n\n    /**\n        @notice Sets a new resource for handler contracts that use the IERCHandler interface,\n        and maps the {handlerAddress} to {resourceID} in {_resourceIDToHandlerAddress}.\n        @notice Only callable by an address that currently has the admin role.\n        @param handlerAddress Address of handler resource will be set for.\n        @param resourceID ResourceID to be used when making deposits.\n        @param tokenAddress Address of contract to be called when a deposit is made and a deposited is executed.\n     */\n    function adminSetResource(address handlerAddress, bytes32 resourceID, address tokenAddress) external onlyAdmin {\n        _resourceIDToHandlerAddress[resourceID] = handlerAddress;\n        IERCHandler handler = IERCHandler(handlerAddress);\n        handler.setResource(resourceID, tokenAddress);\n    }\n\n    /**\n        @notice Sets a new resource for handler contracts that use the IGenericHandler interface,\n        and maps the {handlerAddress} to {resourceID} in {_resourceIDToHandlerAddress}.\n        @notice Only callable by an address that currently has the admin role.\n        @param handlerAddress Address of handler resource will be set for.\n        @param resourceID ResourceID to be used when making deposits.\n        @param contractAddress Address of contract to be called when a deposit is made and a deposited is executed.\n     */\n    function adminSetGenericResource(\n        address handlerAddress,\n        bytes32 resourceID,\n        address contractAddress,\n        bytes4 depositFunctionSig,\n        bytes4 executeFunctionSig\n    ) external onlyAdmin {\n        _resourceIDToHandlerAddress[resourceID] = handlerAddress;\n        IGenericHandler handler = IGenericHandler(handlerAddress);\n        handler.setResource(resourceID, contractAddress, depositFunctionSig, executeFunctionSig);\n    }\n\n    /**\n        @notice Sets a resource as burnable for handler contracts that use the IERCHandler interface.\n        @notice Only callable by an address that currently has the admin role.\n        @param handlerAddress Address of handler resource will be set for.\n        @param tokenAddress Address of contract to be called when a deposit is made and a deposited is executed.\n     */\n    function adminSetBurnable(address handlerAddress, address tokenAddress) external onlyAdmin {\n        IERCHandler handler = IERCHandler(handlerAddress);\n        handler.setBurnable(tokenAddress);\n    }\n\n    /**\n        @notice Returns a proposal.\n        @param originChainID Chain ID deposit originated from.\n        @param depositNonce ID of proposal generated by proposal's origin Bridge contract.\n        @param dataHash Hash of data to be provided when deposit proposal is executed.\n        @return Proposal which consists of:\n        - _dataHash Hash of data to be provided when deposit proposal is executed.\n        - _yesVotes Number of votes in favor of proposal.\n        - _noVotes Number of votes against proposal.\n        - _status Current status of proposal.\n     */\n    function getProposal(uint8 originChainID, uint64 depositNonce, bytes32 dataHash) external view returns (Proposal memory) {\n        uint72 nonceAndID = (uint72(depositNonce) << 8) | uint72(originChainID);\n        return _proposals[nonceAndID][dataHash];\n    }\n\n    /**\n        @notice Changes deposit fee.\n        @notice Only callable by admin.\n        @param newFee Value {_fees[destinationChainID]} will be updated to.\n     */\n    function changeFee(uint8 destinationChainID, uint newFee) external onlyFeeSetter {\n        _fees[destinationChainID] = newFee;\n    }\n\n    /**\n        @notice Used to manually withdraw funds from ERC safes.\n        @param handlerAddress Address of handler to withdraw from.\n        @param tokenAddress Address of token to withdraw.\n        @param recipient Address to withdraw tokens to.\n        @param amountOrTokenID Either the amount of ERC20 tokens or the ERC721 token ID to withdraw.\n     */\n    function adminWithdraw(\n        address handlerAddress,\n        address tokenAddress,\n        address recipient,\n        uint256 amountOrTokenID\n    ) external onlyAdmin {\n        IERCHandler handler = IERCHandler(handlerAddress);\n        handler.withdraw(tokenAddress, recipient, amountOrTokenID);\n    }\n\n    /**\n        @notice Initiates a transfer using a specified handler contract.\n        @notice Only callable when Bridge is not paused.\n        @param destinationChainID ID of chain deposit will be bridged to.\n        @param resourceID ResourceID used to find address of handler to be used for deposit.\n        @param data Additional data to be passed to specified handler.\n        @param _auxData Unused parameter, can be used for everything, for example, writing IDs of apps from which the deposit was made.\n        @notice Emits {Deposit} event.\n     */\n    function deposit(uint8 destinationChainID, bytes32 resourceID, bytes calldata data, bytes calldata _auxData) external payable whenNotPaused {\n        require(msg.value == _fees[destinationChainID], \"Incorrect fee supplied\");\n\n        address handler = _resourceIDToHandlerAddress[resourceID];\n        require(handler != address(0), \"resourceID not mapped to handler\");\n\n        uint64 depositNonce = ++_depositCounts[destinationChainID];\n\n        IDepositExecute depositHandler = IDepositExecute(handler);\n        depositHandler.deposit(resourceID, destinationChainID, depositNonce, msg.sender, data);\n\n        emit Deposit(destinationChainID, resourceID, depositNonce);\n    }\n\n    /**\n        @notice When called, {msg.sender} will be marked as voting in favor of proposal.\n        @notice Only callable by relayers when Bridge is not paused.\n        @param chainID ID of chain deposit originated from.\n        @param depositNonce ID of deposited generated by origin Bridge contract.\n        @param data data provided when deposit was made.\n        @notice Proposal must not have already been passed or executed.\n        @notice {msg.sender} must not have already voted on proposal.\n        @notice Emits {ProposalEvent} event with status indicating the proposal status.\n        @notice Emits {ProposalVote} event.\n     */\n    function voteProposal(uint8 chainID, uint64 depositNonce, bytes32 resourceID, bytes calldata data) external onlyRelayers whenNotPaused {\n        address handler = _resourceIDToHandlerAddress[resourceID];\n        bytes32 dataHash = keccak256(abi.encodePacked(handler, data));\n\n        uint72 nonceAndID = (uint72(depositNonce) << 8) | uint72(chainID);\n        Proposal storage proposal = _proposals[nonceAndID][dataHash];\n\n        require(_resourceIDToHandlerAddress[resourceID] != address(0), \"no handler for resourceID\");\n        require(uint(proposal._status) <= 1, \"proposal already executed\");\n        require(!_hasVotedOnProposal[nonceAndID][dataHash][msg.sender], \"relayer already voted\");\n\n        if (uint(proposal._status) == 0) {\n            ++_totalProposals;\n            _proposals[nonceAndID][dataHash] = Proposal({\n                _resourceID : resourceID,\n                _dataHash : dataHash,\n                _yesVotes : new address[](1),\n                _noVotes : new address[](0),\n                _status : ProposalStatus.Active,\n                _proposedBlock : block.number\n                });\n\n            proposal._yesVotes[0] = msg.sender;\n            emit ProposalEvent(chainID, depositNonce, ProposalStatus.Active, resourceID, dataHash);\n        } else {\n            require(dataHash == proposal._dataHash, \"datahash mismatch\");\n            proposal._yesVotes.push(msg.sender);\n        }\n        \n        _hasVotedOnProposal[nonceAndID][dataHash][msg.sender] = true;\n        emit ProposalVote(chainID, depositNonce, proposal._status, resourceID);\n\n        // if _relayerThreshold has been exceeded\n        if (proposal._yesVotes.length >= _relayerThreshold) {\n            require(dataHash == proposal._dataHash, \"data doesn't match datahash\");\n\n            proposal._status = ProposalStatus.Executed;\n\n            IDepositExecute depositHandler = IDepositExecute(_resourceIDToHandlerAddress[proposal._resourceID]);\n\n            depositHandler.executeProposal(proposal._resourceID, data);\n\n            emit ProposalEvent(chainID, depositNonce, proposal._status, proposal._resourceID, proposal._dataHash);\n        }\n    }\n\n    /**\n        @notice Transfers eth in the contract to the specified addresses. The parameters addrs and amounts are mapped 1-1.\n        This means that the address at index 0 for addrs will receive the amount (in WEI) from amounts at index 0.\n        @param addrs Array of addresses to transfer {amounts} to.\n        @param amounts Array of amonuts to transfer to {addrs}.\n     */\n    function transferFunds(address payable[] calldata addrs, uint[] calldata amounts) external onlyAdmin {\n        for (uint i = 0; i < addrs.length; i++) {\n            addrs[i].transfer(amounts[i]);\n        }\n    }\n\n}\n",
  "sourcePath": "/Users/oleg/Desktop/crosschain/chainbridge-solidity/contracts/Bridge.sol",
  "compiler": {
    "name": "solc",
    "version": "0.6.4+commit.1dca32f3.Emscripten.clang"
  },
  "schemaVersion": "3.1.0",
  "updatedAt": "2021-07-13T16:47:45.769Z",
  "devdoc": {
    "author": "ChainSafe Systems.",
    "methods": {
      "adminAddRelayer(address)": {
        "params": {
          "relayerAddress": "Address of relayer to be added."
        }
      },
      "adminChangeRelayerThreshold(uint256)": {
        "params": {
          "newThreshold": "Value {_relayerThreshold} will be changed to."
        }
      },
      "adminRemoveRelayer(address)": {
        "params": {
          "relayerAddress": "Address of relayer to be removed."
        }
      },
      "adminSetBurnable(address,address)": {
        "params": {
          "handlerAddress": "Address of handler resource will be set for.",
          "tokenAddress": "Address of contract to be called when a deposit is made and a deposited is executed."
        }
      },
      "adminSetGenericResource(address,bytes32,address,bytes4,bytes4)": {
        "params": {
          "contractAddress": "Address of contract to be called when a deposit is made and a deposited is executed.",
          "handlerAddress": "Address of handler resource will be set for.",
          "resourceID": "ResourceID to be used when making deposits."
        }
      },
      "adminSetResource(address,bytes32,address)": {
        "params": {
          "handlerAddress": "Address of handler resource will be set for.",
          "resourceID": "ResourceID to be used when making deposits.",
          "tokenAddress": "Address of contract to be called when a deposit is made and a deposited is executed."
        }
      },
      "adminWithdraw(address,address,address,uint256)": {
        "params": {
          "amountOrTokenID": "Either the amount of ERC20 tokens or the ERC721 token ID to withdraw.",
          "handlerAddress": "Address of handler to withdraw from.",
          "recipient": "Address to withdraw tokens to.",
          "tokenAddress": "Address of token to withdraw."
        }
      },
      "changeFee(uint8,uint256)": {
        "params": {
          "newFee": "Value {_fees[destinationChainID]} will be updated to."
        }
      },
      "constructor": {
        "params": {
          "chainID": "ID of chain the Bridge contract exists on.",
          "initialRelayerThreshold": "Number of votes needed for a deposit proposal to be considered passed.",
          "initialRelayers": "Addresses that should be initially granted the relayer role."
        }
      },
      "deposit(uint8,bytes32,bytes,bytes)": {
        "params": {
          "_auxData": "Unused parameter, can be used for everything, for example, writing IDs of apps from which the deposit was made.",
          "data": "Additional data to be passed to specified handler.",
          "destinationChainID": "ID of chain deposit will be bridged to.",
          "resourceID": "ResourceID used to find address of handler to be used for deposit."
        }
      },
      "getProposal(uint8,uint64,bytes32)": {
        "params": {
          "dataHash": "Hash of data to be provided when deposit proposal is executed.",
          "depositNonce": "ID of proposal generated by proposal's origin Bridge contract.",
          "originChainID": "Chain ID deposit originated from."
        },
        "returns": {
          "_0": "Proposal which consists of: - _dataHash Hash of data to be provided when deposit proposal is executed. - _yesVotes Number of votes in favor of proposal. - _noVotes Number of votes against proposal. - _status Current status of proposal."
        }
      },
      "getRoleAdmin(bytes32)": {
        "details": "Returns the admin role that controls `role`. See {grantRole} and {revokeRole}.     * To change a role's admin, use {_setRoleAdmin}."
      },
      "getRoleMember(bytes32,uint256)": {
        "details": "Returns one of the accounts that have `role`. `index` must be a value between 0 and {getRoleMemberCount}, non-inclusive.     * Role bearers are not sorted in any particular way, and their ordering may change at any point.     * WARNING: When using {getRoleMember} and {getRoleMemberCount}, make sure you perform all queries on the same block. See the following https://forum.openzeppelin.com/t/iterating-over-elements-on-enumerableset-in-openzeppelin-contracts/2296[forum post] for more information."
      },
      "getRoleMemberCount(bytes32)": {
        "details": "Returns the number of accounts that have `role`. Can be used together with {getRoleMember} to enumerate all bearers of a role."
      },
      "grantRole(bytes32,address)": {
        "details": "Grants `role` to `account`.     * If `account` had not been already granted `role`, emits a {RoleGranted} event.     * Requirements:     * - the caller must have ``role``'s admin role."
      },
      "hasRole(bytes32,address)": {
        "details": "Returns `true` if `account` has been granted `role`."
      },
      "isRelayer(address)": {
        "params": {
          "relayer": "Address to check."
        }
      },
      "paused()": {
        "details": "Returns true if the contract is paused, and false otherwise."
      },
      "renounceAdmin(address)": {
        "params": {
          "newAdmin": "Address that admin role will be granted to."
        }
      },
      "renounceRole(bytes32,address)": {
        "details": "Revokes `role` from the calling account.     * Roles are often managed via {grantRole} and {revokeRole}: this function's purpose is to provide a mechanism for accounts to lose their privileges if they are compromised (such as when a trusted device is misplaced).     * If the calling account had been granted `role`, emits a {RoleRevoked} event.     * Requirements:     * - the caller must be `account`."
      },
      "revokeRole(bytes32,address)": {
        "details": "Revokes `role` from `account`.     * If `account` had been granted `role`, emits a {RoleRevoked} event.     * Requirements:     * - the caller must have ``role``'s admin role."
      },
      "transferFunds(address[],uint256[])": {
        "params": {
          "addrs": "Array of addresses to transfer {amounts} to.",
          "amounts": "Array of amonuts to transfer to {addrs}."
        }
      },
      "voteProposal(uint8,uint64,bytes32,bytes)": {
        "params": {
          "chainID": "ID of chain deposit originated from.",
          "data": "data provided when deposit was made.",
          "depositNonce": "ID of deposited generated by origin Bridge contract."
        }
      }
    },
    "title": "Facilitates deposits, creation and votiing of deposit proposals, and deposit executions."
  },
  "userdoc": {
    "methods": {
      "adminAddRelayer(address)": {
        "notice": "Grants {relayerAddress} the relayer role and increases {_totalRelayer} count.Only callable by an address that currently has the admin role.Emits {RelayerAdded} event."
      },
      "adminChangeRelayerThreshold(uint256)": {
        "notice": "Modifies the number of votes required for a proposal to be considered passed.Only callable by an address that currently has the admin role.Emits {RelayerThresholdChanged} event."
      },
      "adminPauseTransfers()": {
        "notice": "Pauses deposits, proposal creation and voting, and deposit executions.Only callable by an address that currently has the admin role."
      },
      "adminRemoveRelayer(address)": {
        "notice": "Removes relayer role for {relayerAddress} and decreases {_totalRelayer} count.Only callable by an address that currently has the admin role.Emits {RelayerRemoved} event."
      },
      "adminSetBurnable(address,address)": {
        "notice": "Sets a resource as burnable for handler contracts that use the IERCHandler interface.Only callable by an address that currently has the admin role."
      },
      "adminSetGenericResource(address,bytes32,address,bytes4,bytes4)": {
        "notice": "Sets a new resource for handler contracts that use the IGenericHandler interface, and maps the {handlerAddress} to {resourceID} in {_resourceIDToHandlerAddress}.Only callable by an address that currently has the admin role."
      },
      "adminSetResource(address,bytes32,address)": {
        "notice": "Sets a new resource for handler contracts that use the IERCHandler interface, and maps the {handlerAddress} to {resourceID} in {_resourceIDToHandlerAddress}.Only callable by an address that currently has the admin role."
      },
      "adminUnpauseTransfers()": {
        "notice": "Unpauses deposits, proposal creation and voting, and deposit executions.Only callable by an address that currently has the admin role."
      },
      "adminWithdraw(address,address,address,uint256)": {
        "notice": "Used to manually withdraw funds from ERC safes."
      },
      "changeFee(uint8,uint256)": {
        "notice": "Changes deposit fee.Only callable by admin."
      },
      "constructor": "Initializes Bridge, creates and grants {msg.sender} the admin role, creates and grants {initialRelayers} the relayer role.",
      "deposit(uint8,bytes32,bytes,bytes)": {
        "notice": "Initiates a transfer using a specified handler contract.Only callable when Bridge is not paused.Emits {Deposit} event."
      },
      "getProposal(uint8,uint64,bytes32)": {
        "notice": "Returns a proposal."
      },
      "isRelayer(address)": {
        "notice": "Returns true if {relayer} has the relayer role."
      },
      "renounceAdmin(address)": {
        "notice": "Removes admin role from {msg.sender} and grants it to {newAdmin}.Only callable by an address that currently has the admin role."
      },
      "transferFunds(address[],uint256[])": {
        "notice": "Transfers eth in the contract to the specified addresses. The parameters addrs and amounts are mapped 1-1. This means that the address at index 0 for addrs will receive the amount (in WEI) from amounts at index 0."
      },
      "voteProposal(uint8,uint64,bytes32,bytes)": {
        "notice": "When called, {msg.sender} will be marked as voting in favor of proposal.Only callable by relayers when Bridge is not paused.Proposal must not have already been passed or executed.{msg.sender} must not have already voted on proposal.Emits {ProposalEvent} event with status indicating the proposal status.Emits {ProposalVote} event."
      }
    }
  }
}